{
  "_format": "hh-sol-artifact-1",
  "contractName": "LCContract",
  "sourceName": "contracts/LC.sol",
  "abi": [
    {
      "inputs": [
        {
          "internalType": "address",
          "name": "_usdcAddress",
          "type": "address"
        }
      ],
      "stateMutability": "nonpayable",
      "type": "constructor"
    },
    {
      "inputs": [
        {
          "internalType": "address",
          "name": "_creator",
          "type": "address"
        }
      ],
      "name": "acceptLC",
      "outputs": [],
      "stateMutability": "nonpayable",
      "type": "function"
    },
    {
      "inputs": [
        {
          "internalType": "address",
          "name": "",
          "type": "address"
        }
      ],
      "name": "acceptedLC",
      "outputs": [
        {
          "internalType": "bool",
          "name": "",
          "type": "bool"
        }
      ],
      "stateMutability": "view",
      "type": "function"
    },
    {
      "inputs": [
        {
          "internalType": "uint256[2]",
          "name": "a",
          "type": "uint256[2]"
        },
        {
          "internalType": "uint256[2][2]",
          "name": "b",
          "type": "uint256[2][2]"
        },
        {
          "internalType": "uint256[2]",
          "name": "c",
          "type": "uint256[2]"
        },
        {
          "internalType": "uint256[10]",
          "name": "signals",
          "type": "uint256[10]"
        }
      ],
      "name": "completeLC",
      "outputs": [],
      "stateMutability": "nonpayable",
      "type": "function"
    },
    {
      "inputs": [
        {
          "internalType": "uint256",
          "name": "_dateAndPlaceOfExpiry",
          "type": "uint256"
        },
        {
          "internalType": "string",
          "name": "_applicantAddressIRL",
          "type": "string"
        },
        {
          "components": [
            {
              "internalType": "address",
              "name": "addressEOA",
              "type": "address"
            },
            {
              "internalType": "string",
              "name": "addressIRL",
              "type": "string"
            }
          ],
          "internalType": "struct LCContract.ActorDetails",
          "name": "_beneficiary",
          "type": "tuple"
        },
        {
          "internalType": "uint256",
          "name": "_currencyAmount",
          "type": "uint256"
        },
        {
          "components": [
            {
              "internalType": "string",
              "name": "portOfLoading",
              "type": "string"
            },
            {
              "internalType": "string",
              "name": "portOfDischarge",
              "type": "string"
            }
          ],
          "internalType": "struct LCContract.PortDetails",
          "name": "_portDetails",
          "type": "tuple"
        },
        {
          "internalType": "string",
          "name": "_descriptionOfGoodsAndOrServices",
          "type": "string"
        }
      ],
      "name": "createLC",
      "outputs": [],
      "stateMutability": "nonpayable",
      "type": "function"
    },
    {
      "inputs": [
        {
          "internalType": "address",
          "name": "",
          "type": "address"
        }
      ],
      "name": "creatorToLC",
      "outputs": [
        {
          "internalType": "uint256",
          "name": "sequenceOfTotal",
          "type": "uint256"
        },
        {
          "internalType": "enum LCContract.FormOfDocCredit",
          "name": "formOfDocCredit",
          "type": "uint8"
        },
        {
          "internalType": "uint256",
          "name": "docCreditNumber",
          "type": "uint256"
        },
        {
          "components": [
            {
              "internalType": "uint256",
              "name": "dateOfIssue",
              "type": "uint256"
            },
            {
              "internalType": "enum LCContract.ApplicableRules",
              "name": "applicableRules",
              "type": "uint8"
            },
            {
              "internalType": "uint256",
              "name": "dateAndPlaceOfExpiry",
              "type": "uint256"
            }
          ],
          "internalType": "struct LCContract.IssueDetails",
          "name": "issueDetails",
          "type": "tuple"
        },
        {
          "components": [
            {
              "internalType": "address",
              "name": "addressEOA",
              "type": "address"
            },
            {
              "internalType": "string",
              "name": "addressIRL",
              "type": "string"
            }
          ],
          "internalType": "struct LCContract.ActorDetails",
          "name": "applicant",
          "type": "tuple"
        },
        {
          "components": [
            {
              "internalType": "address",
              "name": "addressEOA",
              "type": "address"
            },
            {
              "internalType": "string",
              "name": "addressIRL",
              "type": "string"
            }
          ],
          "internalType": "struct LCContract.ActorDetails",
          "name": "beneficiary",
          "type": "tuple"
        },
        {
          "components": [
            {
              "internalType": "string",
              "name": "currencyCode",
              "type": "string"
            },
            {
              "internalType": "address",
              "name": "currencyAddress",
              "type": "address"
            },
            {
              "internalType": "uint256",
              "name": "amount",
              "type": "uint256"
            }
          ],
          "internalType": "struct LCContract.CurrencyDetails",
          "name": "currencyDetails",
          "type": "tuple"
        },
        {
          "internalType": "enum LCContract.AvailableWithBy",
          "name": "availableWithBy",
          "type": "uint8"
        },
        {
          "components": [
            {
              "internalType": "enum LCContract.PartialShipments",
              "name": "partialShipments",
              "type": "uint8"
            },
            {
              "internalType": "enum LCContract.Transshipment",
              "name": "transshipment",
              "type": "uint8"
            },
            {
              "components": [
                {
                  "internalType": "string",
                  "name": "portOfLoading",
                  "type": "string"
                },
                {
                  "internalType": "string",
                  "name": "portOfDischarge",
                  "type": "string"
                }
              ],
              "internalType": "struct LCContract.PortDetails",
              "name": "portDetails",
              "type": "tuple"
            }
          ],
          "internalType": "struct LCContract.ShippingDetails",
          "name": "shippingDetails",
          "type": "tuple"
        },
        {
          "internalType": "string",
          "name": "descriptionOfGoodsAndOrServices",
          "type": "string"
        },
        {
          "internalType": "string",
          "name": "documentsRequired",
          "type": "string"
        },
        {
          "internalType": "string",
          "name": "additionalConditions",
          "type": "string"
        },
        {
          "internalType": "uint256",
          "name": "periodForPresentation",
          "type": "uint256"
        },
        {
          "internalType": "enum LCContract.ConfirmationInstructions",
          "name": "confirmationInstructions",
          "type": "uint8"
        }
      ],
      "stateMutability": "view",
      "type": "function"
    },
    {
      "inputs": [],
      "name": "docCreditNumberCounter",
      "outputs": [
        {
          "internalType": "uint256",
          "name": "",
          "type": "uint256"
        }
      ],
      "stateMutability": "view",
      "type": "function"
    },
    {
      "inputs": [
        {
          "internalType": "address",
          "name": "_creator",
          "type": "address"
        }
      ],
      "name": "getLC",
      "outputs": [
        {
          "components": [
            {
              "internalType": "uint256",
              "name": "sequenceOfTotal",
              "type": "uint256"
            },
            {
              "internalType": "enum LCContract.FormOfDocCredit",
              "name": "formOfDocCredit",
              "type": "uint8"
            },
            {
              "internalType": "uint256",
              "name": "docCreditNumber",
              "type": "uint256"
            },
            {
              "components": [
                {
                  "internalType": "uint256",
                  "name": "dateOfIssue",
                  "type": "uint256"
                },
                {
                  "internalType": "enum LCContract.ApplicableRules",
                  "name": "applicableRules",
                  "type": "uint8"
                },
                {
                  "internalType": "uint256",
                  "name": "dateAndPlaceOfExpiry",
                  "type": "uint256"
                }
              ],
              "internalType": "struct LCContract.IssueDetails",
              "name": "issueDetails",
              "type": "tuple"
            },
            {
              "components": [
                {
                  "internalType": "address",
                  "name": "addressEOA",
                  "type": "address"
                },
                {
                  "internalType": "string",
                  "name": "addressIRL",
                  "type": "string"
                }
              ],
              "internalType": "struct LCContract.ActorDetails",
              "name": "applicant",
              "type": "tuple"
            },
            {
              "components": [
                {
                  "internalType": "address",
                  "name": "addressEOA",
                  "type": "address"
                },
                {
                  "internalType": "string",
                  "name": "addressIRL",
                  "type": "string"
                }
              ],
              "internalType": "struct LCContract.ActorDetails",
              "name": "beneficiary",
              "type": "tuple"
            },
            {
              "components": [
                {
                  "internalType": "string",
                  "name": "currencyCode",
                  "type": "string"
                },
                {
                  "internalType": "address",
                  "name": "currencyAddress",
                  "type": "address"
                },
                {
                  "internalType": "uint256",
                  "name": "amount",
                  "type": "uint256"
                }
              ],
              "internalType": "struct LCContract.CurrencyDetails",
              "name": "currencyDetails",
              "type": "tuple"
            },
            {
              "internalType": "enum LCContract.AvailableWithBy",
              "name": "availableWithBy",
              "type": "uint8"
            },
            {
              "components": [
                {
                  "internalType": "enum LCContract.PartialShipments",
                  "name": "partialShipments",
                  "type": "uint8"
                },
                {
                  "internalType": "enum LCContract.Transshipment",
                  "name": "transshipment",
                  "type": "uint8"
                },
                {
                  "components": [
                    {
                      "internalType": "string",
                      "name": "portOfLoading",
                      "type": "string"
                    },
                    {
                      "internalType": "string",
                      "name": "portOfDischarge",
                      "type": "string"
                    }
                  ],
                  "internalType": "struct LCContract.PortDetails",
                  "name": "portDetails",
                  "type": "tuple"
                }
              ],
              "internalType": "struct LCContract.ShippingDetails",
              "name": "shippingDetails",
              "type": "tuple"
            },
            {
              "internalType": "string",
              "name": "descriptionOfGoodsAndOrServices",
              "type": "string"
            },
            {
              "internalType": "string",
              "name": "documentsRequired",
              "type": "string"
            },
            {
              "internalType": "string",
              "name": "additionalConditions",
              "type": "string"
            },
            {
              "internalType": "uint256",
              "name": "periodForPresentation",
              "type": "uint256"
            },
            {
              "internalType": "enum LCContract.ConfirmationInstructions",
              "name": "confirmationInstructions",
              "type": "uint8"
            }
          ],
          "internalType": "struct LCContract.LC",
          "name": "",
          "type": "tuple"
        }
      ],
      "stateMutability": "view",
      "type": "function"
    },
    {
      "inputs": [
        {
          "internalType": "address",
          "name": "_creator",
          "type": "address"
        }
      ],
      "name": "isLCAccepted",
      "outputs": [
        {
          "internalType": "bool",
          "name": "",
          "type": "bool"
        }
      ],
      "stateMutability": "view",
      "type": "function"
    },
    {
      "inputs": [],
      "name": "usdc",
      "outputs": [
        {
          "internalType": "contract IERC20",
          "name": "",
          "type": "address"
        }
      ],
      "stateMutability": "view",
      "type": "function"
    },
    {
      "inputs": [
        {
          "internalType": "uint256[2]",
          "name": "_pA",
          "type": "uint256[2]"
        },
        {
          "internalType": "uint256[2][2]",
          "name": "_pB",
          "type": "uint256[2][2]"
        },
        {
          "internalType": "uint256[2]",
          "name": "_pC",
          "type": "uint256[2]"
        },
        {
          "internalType": "uint256[9]",
          "name": "_pubSignals",
          "type": "uint256[9]"
        }
      ],
      "name": "verifyProof",
      "outputs": [
        {
          "internalType": "bool",
          "name": "",
          "type": "bool"
        }
      ],
      "stateMutability": "view",
      "type": "function"
    }
  ],
  "bytecode": "0x608060405260016002553480156200001657600080fd5b5060405162002d9a38038062002d9a83398101604081905262000039916200005f565b600380546001600160a01b0319166001600160a01b039290921691909117905562000091565b6000602082840312156200007257600080fd5b81516001600160a01b03811681146200008a57600080fd5b9392505050565b612cf980620000a16000396000f3fe608060405234801561001057600080fd5b506004361061009e5760003560e01c80635ab91137116100665780635ab911371461015f5780637aa711f81461017f578063a21ac17214610193578063c542c93b146101bf578063cd1aa73e146101d257600080fd5b806305e514e2146100a35780631e5f8b72146100db5780633e413bee146100f05780634db794481461011b5780635773cdfb14610148575b600080fd5b6100c66100b13660046123df565b60016020526000908152604090205460ff1681565b60405190151581526020015b60405180910390f35b6100ee6100e9366004612589565b6101e5565b005b600354610103906001600160a01b031681565b6040516001600160a01b0390911681526020016100d2565b61012e6101293660046123df565b610643565b6040516100d29e9d9c9b9a999897969594939291906127ed565b61015160025481565b6040519081526020016100d2565b61017261016d3660046123df565b610c5f565b6040516100d291906128dc565b6100ee61018d366004612a59565b50505050565b6100c66101a13660046123df565b6001600160a01b031660009081526001602052604090205460ff1690565b6100c66101cd366004612ab9565b611342565b6100ee6101e03660046123df565b611a8e565b6101ed612282565b600181526000602080830182905260025460408085019190915260608085018051429052805184018590525182018b9052815180830183523381528084018b9052608080870191909152825180840184528a516001600160a01b0390811682528b8601518287015260a080890192909252845191820185526003828501818152621554d160ea1b8486015283525416818601528084018a905260c0870152600560e08701526101008601805186905280518501959095528251808401845288518152888501518186015294518301949094526101208501869052815180830183526013815272141c9bdbd9881bd98814d95855d85e509a5b1b606a1b81850152610140860152815193840190915280835290612c6490830139610160820152621baf8061018082015260026101a0820152336000908152602081815260409091208251815590820151600180830180548594939260ff1990911690838181111561035957610359612648565b0217905550604082015160028201556060820151805160038301908155602082015160048085018054909160ff1990911690600190849081111561039f5761039f612648565b021790555060409190910151600290910155608082015180516006830180546001600160a01b0319166001600160a01b03909216919091178155602082015160078401906103ed9082612b5a565b50505060a082015180516008830180546001600160a01b0319166001600160a01b039092169190911781556020820151600984019061042c9082612b5a565b50505060c08201518051600a83019081906104479082612b5a565b506020820151600182810180546001600160a01b0319166001600160a01b039093169290921790915560409092015160029091015560e0830151600d830180549192909160ff1916908360058111156104a2576104a2612648565b02179055506101008201518051600e83018054909190829060ff191660018360028111156104d2576104d2612648565b021790555060208201518154829061ff0019166101008360018111156104fa576104fa612648565b021790555060408201518051600183019081906105179082612b5a565b506020820151600182019061052c9082612b5a565b505050506101208301516011830191506105469082612b5a565b50610140820151601282019061055c9082612b5a565b5061016082015160138201906105729082612b5a565b5061018082015160148201556101a082015160158201805460ff191660018360028111156105a2576105a2612648565b02179055505060028054915060006105b983612c1a565b90915550506003546040516323b872dd60e01b8152336004820152306024820152604481018690526001600160a01b03909116906323b872dd906064016020604051808303816000875af1158015610615573d6000803e3d6000fd5b505050506040513d601f19601f820116820180604052508101906106399190612c41565b5050505050505050565b600060208181529181526040908190208054600182015460028301548451606081019095526003840180548652600480860154949760ff948516979396959394929390850192169081111561069a5761069a612648565b60048111156106ab576106ab612648565b815260029190910154602091820152604080518082019091526006840180546001600160a01b0316825260078501805494959492939192918401916106ef90612ad1565b80601f016020809104026020016040519081016040528092919081815260200182805461071b90612ad1565b80156107685780601f1061073d57610100808354040283529160200191610768565b820191906000526020600020905b81548152906001019060200180831161074b57829003601f168201915b505050919092525050604080518082019091526008840180546001600160a01b0316825260098501805494959492935090916020840191906107a990612ad1565b80601f01602080910402602001604051908101604052809291908181526020018280546107d590612ad1565b80156108225780601f106107f757610100808354040283529160200191610822565b820191906000526020600020905b81548152906001019060200180831161080557829003601f168201915b5050505050815250509080600a0160405180606001604052908160008201805461084b90612ad1565b80601f016020809104026020016040519081016040528092919081815260200182805461087790612ad1565b80156108c45780601f10610899576101008083540402835291602001916108c4565b820191906000526020600020905b8154815290600101906020018083116108a757829003601f168201915b505050918352505060018201546001600160a01b03166020820152600291820154604091820152600d840154815160608101909252600e85018054949560ff9283169590949192849291169081111561091f5761091f612648565b600281111561093057610930612648565b81528154602090910190610100900460ff16600181111561095357610953612648565b600181111561096457610964612648565b81526020016001820160405180604001604052908160008201805461098890612ad1565b80601f01602080910402602001604051908101604052809291908181526020018280546109b490612ad1565b8015610a015780601f106109d657610100808354040283529160200191610a01565b820191906000526020600020905b8154815290600101906020018083116109e457829003601f168201915b50505050508152602001600182018054610a1a90612ad1565b80601f0160208091040260200160405190810160405280929190818152602001828054610a4690612ad1565b8015610a935780601f10610a6857610100808354040283529160200191610a93565b820191906000526020600020905b815481529060010190602001808311610a7657829003601f168201915b5050505050815250508152505090806011018054610ab090612ad1565b80601f0160208091040260200160405190810160405280929190818152602001828054610adc90612ad1565b8015610b295780601f10610afe57610100808354040283529160200191610b29565b820191906000526020600020905b815481529060010190602001808311610b0c57829003601f168201915b505050505090806012018054610b3e90612ad1565b80601f0160208091040260200160405190810160405280929190818152602001828054610b6a90612ad1565b8015610bb75780601f10610b8c57610100808354040283529160200191610bb7565b820191906000526020600020905b815481529060010190602001808311610b9a57829003601f168201915b505050505090806013018054610bcc90612ad1565b80601f0160208091040260200160405190810160405280929190818152602001828054610bf890612ad1565b8015610c455780601f10610c1a57610100808354040283529160200191610c45565b820191906000526020600020905b815481529060010190602001808311610c2857829003601f168201915b50505050601483015460159093015491929160ff1690508e565b610c67612282565b6001600160a01b0382166000908152602081815260409182902082516101c0810190935280548352600180820154919284019160ff1690811115610cad57610cad612648565b6001811115610cbe57610cbe612648565b81526020016002820154815260200160038201604051806060016040529081600082015481526020016001820160009054906101000a900460ff166004811115610d0a57610d0a612648565b6004811115610d1b57610d1b612648565b815260029190910154602091820152908252604080518082019091526006840180546001600160a01b03168252600785018054948401949293919291840191610d6390612ad1565b80601f0160208091040260200160405190810160405280929190818152602001828054610d8f90612ad1565b8015610ddc5780601f10610db157610100808354040283529160200191610ddc565b820191906000526020600020905b815481529060010190602001808311610dbf57829003601f168201915b505050919092525050508152604080518082019091526008830180546001600160a01b0316825260098401805460209485019484019190610e1c90612ad1565b80601f0160208091040260200160405190810160405280929190818152602001828054610e4890612ad1565b8015610e955780601f10610e6a57610100808354040283529160200191610e95565b820191906000526020600020905b815481529060010190602001808311610e7857829003601f168201915b5050505050815250508152602001600a8201604051806060016040529081600082018054610ec290612ad1565b80601f0160208091040260200160405190810160405280929190818152602001828054610eee90612ad1565b8015610f3b5780601f10610f1057610100808354040283529160200191610f3b565b820191906000526020600020905b815481529060010190602001808311610f1e57829003601f168201915b505050918352505060018201546001600160a01b0316602080830191909152600290920154604090910152908252600d83015491019060ff166005811115610f8557610f85612648565b6005811115610f9657610f96612648565b81526040805160608101909152600e83018054602090930192829060ff166002811115610fc557610fc5612648565b6002811115610fd657610fd6612648565b81528154602090910190610100900460ff166001811115610ff957610ff9612648565b600181111561100a5761100a612648565b81526020016001820160405180604001604052908160008201805461102e90612ad1565b80601f016020809104026020016040519081016040528092919081815260200182805461105a90612ad1565b80156110a75780601f1061107c576101008083540402835291602001916110a7565b820191906000526020600020905b81548152906001019060200180831161108a57829003601f168201915b505050505081526020016001820180546110c090612ad1565b80601f01602080910402602001604051908101604052809291908181526020018280546110ec90612ad1565b80156111395780601f1061110e57610100808354040283529160200191611139565b820191906000526020600020905b81548152906001019060200180831161111c57829003601f168201915b50505050508152505081525050815260200160118201805461115a90612ad1565b80601f016020809104026020016040519081016040528092919081815260200182805461118690612ad1565b80156111d35780601f106111a8576101008083540402835291602001916111d3565b820191906000526020600020905b8154815290600101906020018083116111b657829003601f168201915b505050505081526020016012820180546111ec90612ad1565b80601f016020809104026020016040519081016040528092919081815260200182805461121890612ad1565b80156112655780601f1061123a57610100808354040283529160200191611265565b820191906000526020600020905b81548152906001019060200180831161124857829003601f168201915b5050505050815260200160138201805461127e90612ad1565b80601f01602080910402602001604051908101604052809291908181526020018280546112aa90612ad1565b80156112f75780601f106112cc576101008083540402835291602001916112f7565b820191906000526020600020905b8154815290600101906020018083116112da57829003601f168201915b505050918352505060148201546020820152601582015460409091019060ff16600281111561132857611328612648565b600281111561133957611339612648565b90525092915050565b60006119e6565b7f30644e72e131a029b85045b68181585d97816a916871ca8d3c208c16d87cfd47811061137a576000805260206000f35b50565b600060405183815284602082015285604082015260408160608360076107d05a03fa9150816113b0576000805260206000f35b825160408201526020830151606082015260408360808360066107d05a03fa915050806113e1576000805260206000f35b5050505050565b7f046b1f6ff37f1c517167dd65f3117b65a3d504301dee0fa7803d954c4afcf75885527f16832aa8567bcea698e1156145cc2162ab777c81c0af4cbcdb79f1a89708075760208601526000608086018661148587357f1a4963f8b74ad2b68e4d35c79f61a56f7f5a79a8cc84af1d1807a3e077c6bea67f26c43c169edb64936f35b0d03566a7de5c2f5784124457feb2a1955c95268e258461137d565b6114d560208801357f25cb112258fda6375ff57c509e3a48bee3aef73fa7570be21722d1d22e146c027f1617763fb0034c0379397367bea418561184e3dca6bd1f87889929d7283203228461137d565b61152560408801357f01f3abad48c437417be02a73d05ba69ffdf74faf1e3e335da858622d19b972c77f16b4a7983e3c561dadc1ed34e34db843237c205242565f0d1c6fd943e00ca0438461137d565b61157560608801357f039db774f52b360975aaabcd5946d16e03e2cec58c5a6c5e39a5845c5448b6a67f195cb3729018cb00d3b1c244d39a8c328d1279432970ce02351da7dcff8ec7858461137d565b6115c560808801357f1d6d20046d8274a8ca0cf6bdd3e2bdac1ba08c53d0a0bd739d2c73648049968f7f0100e3301c7e55011a1d6d8a75a6e876a4360387b1c140289b486617a8d5f0628461137d565b61161560a08801357f077190781706b89508d280a15fed9d7b0119c1f86f749830b7b655f033be971a7f11191a2f646ea3aa1979997d85a8c7fb3efd89794aa99ca7202e6ca8f781d1858461137d565b61166560c08801357f28d1f6a47bab06cd55a0461d9e7a545a2ebec068187c75571abcaf7adb9254da7f02ee83e0447702d87ebebe409337b7777234076204d445a6da5e4f72cfc092f68461137d565b6116b560e08801357f3010c3cb3673b001beadca3f88ac8a3ba6e8c525103a43421a6a5223895d939d7f1c9276b622645ca8626de8a34be1e5128a1dd6fb45d2fee53d46b5915ea0c4be8461137d565b6117066101008801357f1f4c28d50901446a5c84182ed47659f13e10e13561c2ec8d93674f959a53246a7f0b5f4d84cf0b0c3394bc154ad8abf4f967973550929bc62ee8f3aed0280ebb388461137d565b50823581527f30644e72e131a029b85045b68181585d97816a916871ca8d3c208c16d87cfd4760208401357f30644e72e131a029b85045b68181585d97816a916871ca8d3c208c16d87cfd4703066020820152833560408201526020840135606082015260408401356080820152606084013560a08201527f2d4d9aa7e302d9df41749d5507949d05dbea33fbb16c643b22f599a2be6df2e260c08201527f14bedd503c37ceb061d8ec60209fe345ce89830a19230301f076caff004d192660e08201527f0967032fcbf776d1afc985f88877f182d38480a653f2decaa9794cbc3bf3060c6101008201527f0e187847ad4c798374d0d6732bf501847dd68bc0e071241e0213bc7fc13db7ab6101208201527f304cfbd1e08a704a99f5e847d93f8c3caafddec46b7a0d379da69a4d112346a76101408201527f1739c1b1a457a8c7313123d24d2f9192f896b7c63eea05a9d57f06547ad0cec8610160820152600087015161018082015260206000018701516101a08201527f198e9393920d483a7260bfb731fb5d25f1aa493335a9e71297e485b7aef312c26101c08201527f1800deef121f1e76426a00665e5c4479674322d4f75edadd46debd5cd992f6ed6101e08201527f090689d0585ff075ec9e99ad690c3395bc4b313370b38ef355acdadcd122975b6102008201527f12c85ea5db8c6deb4aab71808dcb408fe3d1e7690c43d37b4ce6cc0166fa7daa610220820152843561024082015260208501356102608201527f198e9393920d483a7260bfb731fb5d25f1aa493335a9e71297e485b7aef312c26102808201527f1800deef121f1e76426a00665e5c4479674322d4f75edadd46debd5cd992f6ed6102a08201527f090689d0585ff075ec9e99ad690c3395bc4b313370b38ef355acdadcd122975b6102c08201527f12c85ea5db8c6deb4aab71808dcb408fe3d1e7690c43d37b4ce6cc0166fa7daa6102e08201526020816103008360086107d05a03fa9051169695505050505050565b60405161038081016040526119fe6000840135611349565b611a0b6020840135611349565b611a186040840135611349565b611a256060840135611349565b611a326080840135611349565b611a3f60a0840135611349565b611a4c60c0840135611349565b611a5960e0840135611349565b611a67610100840135611349565b611a75610120840135611349565b611a82818486888a6113e8565b90508060005260206000f35b6001600160a01b03811660009081526020818152604080832081516101c0810190925280548252600180820154929391929184019160ff1690811115611ad657611ad6612648565b6001811115611ae757611ae7612648565b81526020016002820154815260200160038201604051806060016040529081600082015481526020016001820160009054906101000a900460ff166004811115611b3357611b33612648565b6004811115611b4457611b44612648565b815260029190910154602091820152908252604080518082019091526006840180546001600160a01b03168252600785018054948401949293919291840191611b8c90612ad1565b80601f0160208091040260200160405190810160405280929190818152602001828054611bb890612ad1565b8015611c055780601f10611bda57610100808354040283529160200191611c05565b820191906000526020600020905b815481529060010190602001808311611be857829003601f168201915b505050919092525050508152604080518082019091526008830180546001600160a01b0316825260098401805460209485019484019190611c4590612ad1565b80601f0160208091040260200160405190810160405280929190818152602001828054611c7190612ad1565b8015611cbe5780601f10611c9357610100808354040283529160200191611cbe565b820191906000526020600020905b815481529060010190602001808311611ca157829003601f168201915b5050505050815250508152602001600a8201604051806060016040529081600082018054611ceb90612ad1565b80601f0160208091040260200160405190810160405280929190818152602001828054611d1790612ad1565b8015611d645780601f10611d3957610100808354040283529160200191611d64565b820191906000526020600020905b815481529060010190602001808311611d4757829003601f168201915b505050918352505060018201546001600160a01b0316602080830191909152600290920154604090910152908252600d83015491019060ff166005811115611dae57611dae612648565b6005811115611dbf57611dbf612648565b81526040805160608101909152600e83018054602090930192829060ff166002811115611dee57611dee612648565b6002811115611dff57611dff612648565b81528154602090910190610100900460ff166001811115611e2257611e22612648565b6001811115611e3357611e33612648565b815260200160018201604051806040016040529081600082018054611e5790612ad1565b80601f0160208091040260200160405190810160405280929190818152602001828054611e8390612ad1565b8015611ed05780601f10611ea557610100808354040283529160200191611ed0565b820191906000526020600020905b815481529060010190602001808311611eb357829003601f168201915b50505050508152602001600182018054611ee990612ad1565b80601f0160208091040260200160405190810160405280929190818152602001828054611f1590612ad1565b8015611f625780601f10611f3757610100808354040283529160200191611f62565b820191906000526020600020905b815481529060010190602001808311611f4557829003601f168201915b505050505081525050815250508152602001601182018054611f8390612ad1565b80601f0160208091040260200160405190810160405280929190818152602001828054611faf90612ad1565b8015611ffc5780601f10611fd157610100808354040283529160200191611ffc565b820191906000526020600020905b815481529060010190602001808311611fdf57829003601f168201915b5050505050815260200160128201805461201590612ad1565b80601f016020809104026020016040519081016040528092919081815260200182805461204190612ad1565b801561208e5780601f106120635761010080835404028352916020019161208e565b820191906000526020600020905b81548152906001019060200180831161207157829003601f168201915b505050505081526020016013820180546120a790612ad1565b80601f01602080910402602001604051908101604052809291908181526020018280546120d390612ad1565b80156121205780601f106120f557610100808354040283529160200191612120565b820191906000526020600020905b81548152906001019060200180831161210357829003601f168201915b505050918352505060148201546020820152601582015460409091019060ff16600281111561215157612151612648565b600281111561216257612162612648565b81525050905080604001516000036121b55760405162461bcd60e51b81526020600482015260116024820152701310c8191bd95cc81b9bdd08195e1a5cdd607a1b60448201526064015b60405180910390fd5b60a0810151516001600160a01b031633146122125760405162461bcd60e51b815260206004820152601e60248201527f4f6e6c792062656e65666963696172792063616e20616363657074204c43000060448201526064016121ac565b428160600151604001511161225a5760405162461bcd60e51b815260206004820152600e60248201526d1310c81a185cc8195e1c1a5c995960921b60448201526064016121ac565b506001600160a01b03166000908152600160208190526040909120805460ff19169091179055565b604080516101c08101909152600080825260208201908152602001600081526020016122c96040805160608101909152600080825260208201908152602001600081525090565b81526020016122f4604051806040016040528060006001600160a01b03168152602001606081525090565b815260200161231f604051806040016040528060006001600160a01b03168152602001606081525090565b815260408051606080820183528152600060208281018290529282015291019081526020016000815260200161235361238c565b8152602001606081526020016060815260200160608152602001600081526020016000600281111561238757612387612648565b905290565b6040805160608101909152806000815260200160008152602001612387604051806040016040528060608152602001606081525090565b80356001600160a01b03811681146123da57600080fd5b919050565b6000602082840312156123f157600080fd5b6123fa826123c3565b9392505050565b634e487b7160e01b600052604160045260246000fd5b6040805190810167ffffffffffffffff8111828210171561243a5761243a612401565b60405290565b600082601f83011261245157600080fd5b813567ffffffffffffffff8082111561246c5761246c612401565b604051601f8301601f19908116603f0116810190828211818310171561249457612494612401565b816040528381528660208588010111156124ad57600080fd5b836020870160208301376000602085830101528094505050505092915050565b6000604082840312156124df57600080fd5b6124e7612417565b90506124f2826123c3565b8152602082013567ffffffffffffffff81111561250e57600080fd5b61251a84828501612440565b60208301525092915050565b60006040828403121561253857600080fd5b612540612417565b9050813567ffffffffffffffff8082111561255a57600080fd5b61256685838601612440565b8352602084013591508082111561257c57600080fd5b5061251a84828501612440565b60008060008060008060c087890312156125a257600080fd5b86359550602087013567ffffffffffffffff808211156125c157600080fd5b6125cd8a838b01612440565b965060408901359150808211156125e357600080fd5b6125ef8a838b016124cd565b955060608901359450608089013591508082111561260c57600080fd5b6126188a838b01612526565b935060a089013591508082111561262e57600080fd5b5061263b89828a01612440565b9150509295509295509295565b634e487b7160e01b600052602160045260246000fd5b6002811061137a5761137a612648565b6126778161265e565b9052565b8051825260208101516005811061269457612694612648565b6020830152604090810151910152565b6000815180845260005b818110156126ca576020818501810151868301820152016126ae565b506000602082860101526020601f19601f83011685010191505092915050565b60018060a01b038151168252600060208201516040602085015261271160408501826126a4565b949350505050565b600081516060845261272e60608501826126a4565b6020848101516001600160a01b03169086015260409384015193909401929092525090919050565b6006811061267757612677612648565b6003811061137a5761137a612648565b6000815161278381612766565b835260208201516127938161265e565b806020850152506040820151606060408501528051604060608601526127bc60a08601826126a4565b905060208201519150605f198582030160808601526127db81836126a4565b95945050505050565b61267781612766565b8e81526127fd602082018f61266e565b8c6040820152612810606082018d61267b565b61020060c0820152600061282861020083018d6126ea565b82810360e084015261283a818d6126ea565b905082810361010084015261284f818c612719565b905061285f61012084018b612756565b828103610140840152612872818a612776565b905082810361016084015261288781896126a4565b905082810361018084015261289c81886126a4565b90508281036101a08401526128b181876126a4565b915050836101c08301526128c96101e08301846127e4565b9f9e505050505050505050505050505050565b6020815281516020820152600060208301516128fb604084018261266e565b50604083015160608301526060830151612918608084018261267b565b5060808301516102008060e08501526129356102208501836126ea565b915060a0850151601f1961010081878603018188015261295585846126ea565b945060c088015192506101208288870301818901526129748685612719565b955060e0890151935061014061298c818a0186612756565b828a0151945061016092508389880301838a01526129aa8786612776565b9650818a0151945061018091508389880301828a01526129ca87866126a4565b9650808a01519450506101a08389880301818a01526129e987866126a4565b9650828a0151945083898803016101c08a0152612a0687866126a4565b918a01516101e08a01528901519095509250612a27915050828601826127e4565b5090949350505050565b8060408101831015612a4257600080fd5b92915050565b8060808101831015612a4257600080fd5b600080600080610240808688031215612a7157600080fd5b612a7b8787612a31565b9450612a8a8760408801612a48565b9350612a998760c08801612a31565b9250868187011115612aaa57600080fd5b50929591945092610100019150565b600080600080610220808688031215612a7157600080fd5b600181811c90821680612ae557607f821691505b602082108103612b0557634e487b7160e01b600052602260045260246000fd5b50919050565b601f821115612b5557600081815260208120601f850160051c81016020861015612b325750805b601f850160051c820191505b81811015612b5157828155600101612b3e565b5050505b505050565b815167ffffffffffffffff811115612b7457612b74612401565b612b8881612b828454612ad1565b84612b0b565b602080601f831160018114612bbd5760008415612ba55750858301515b600019600386901b1c1916600185901b178555612b51565b600085815260208120601f198616915b82811015612bec57888601518255948401946001909101908401612bcd565b5085821015612c0a5787850151600019600388901b60f8161c191681555b5050505050600190811b01905550565b600060018201612c3a57634e487b7160e01b600052601160045260246000fd5b5060010190565b600060208284031215612c5357600080fd5b815180151581146123fa57600080fdfe546f6b656e697a6564205553442077696c6c206265207472616e73666572726564206469676974616c6c7920746f207468697320636f6e74726163742061646472657373206f6e2074686520457468657265756d20626c6f636b636861696e2ea26469706673582212208746d29310af4589a76361ac89c1b889cf6d92e3273824635561fdf7de7f4d5464736f6c63430008120033",
  "linkReferences": {},
  "deployedLinkReferences": {}
}